:020000040000FA
:040000000128FA2FAA
:1007C40000340034003400343B009F1708003B0021
:1007D400AF1708003B00BF1708003B009B1308003D
:1007E4003B00AB1308003B00BB1308003B009B1706
:1007F40008003B00AB1708003B00BB17080016308D
:1008040021009700080023001E0C0139092C080060
:100814002000110E890C01390F2C080071083B00CF
:10082400960070089500080071083B00920070085B
:100834009100080071083B00A6007008A50008009C
:1008440071083B00A2007008A100080071083B0079
:10085400B6007008B500080071083B00B2007008CB
:10086400B100080071083B00940070089300080070
:1008740071083B00A4007008A300080071083B0045
:10088400B4007008B30008003830210099009801C2
:100894002200960108002930890B4E2C00322300D7
:1008A4009D13080023009D172930890B572C003213
:1008B4000800013021009D009E019F019B019C01C5
:1008C40008008331EF2384318331F223843183316F
:1008D400F523843108008331F82384318331FB23E9
:1008E40084318331FE2384310800083023009F00C3
:1008F40090309D0024309E000C309B009C01080029
:10090400F000842C2000111E882C892C842C8A2C25
:10091400700823009A0008008F2C2000911E932C4D
:10092400942C8F2C23009D1C982C992C9C2C1D12EC
:100934001D169C2C19089E2C080022008C012930BD
:1009440021008C00013023008C0024008C01210044
:10095400951325008C01373026008C00823022004C
:100964009D0008003B009C019D019E019F01A00188
:10097400920191019401930196010130950098012F
:10098400013097009A019901C0309B0008003B0098
:10099400AC01AD01AE01AF01B001A201A101A401FE
:1009A400A301A6010130A500A8010130A700AA01F6
:1009B400A901C030AB0008003B00BC01BD01BE0171
:1009C400BF01C001B201B101B401B301B6010130EC
:1009D400B500B8010130B700BA01B901C030BB009D
:1009E400080084319F248431843146248431843145
:1009F400012484318431B42484318431C924843180
:100A040084315B2484318431DE248431843177243D
:100A140084310800F3007308F200F20DF20D210096
:100A24001D087206833972069D001D1421009D1451
:100A34001B2D9D181E2D1F2D1B2D202D1C08F10074
:100A44001B08F000252D08007308F1007208F0005F
:100A54008431342485318331E62385317508F100EE
:100A64007408F00084313A2485318331E9238531D7
:100A74007708F1007608F000843140248531833111
:100A8400EC2385310800F401F501482D701C4B2D31
:100A94004C2D502D7208F4077308F53D0130F235E2
:100AA400F30D890B512D0130F136F00C890B562DC5
:100AB40070087104031D5F2D602D482D612D75088C
:100AC400F1007408F000662D080084316324853138
:100AD400E430840083308500003FF000013FF100E2
:100AE4008431162485317908F1007808F0008431C6
:100AF40010248531E430840083308500003FF00009
:100B0400013FF1008431222485317908F10078080D
:100B1400F00084311C248531E43084008330850066
:100B2400003FF000013FF10084312E248531790823
:100B3400F1007808F000843128248531E230840003
:100B440083308500003FF200013FF300E23084006F
:100B540083308500003FF400013FF500E23084005B
:100B640083308500003FF600013FF70085312625DC
:100B740085310800F70084314D24853100308531FA
:100B84000C2585317008F4007108F5007508F4002F
:100B9400F501FF307405F80000307505F900F60121
:100BA400F60103307602031CD82DD92DDB2DED2D53
:100BB400ED2D76087707F40074088600870181011B
:100BC4000130F4007408F60703307602031CEB2DA1
:100BD400EC2DDB2DED2D003079021830031978024D
:100BE4000318F52DF62DF82DC42EC42E00307902ED
:100BF400183003197802031C002E012E112E003028
:100C040079024030031978020318092E0A2E112E96
:100C14007708023E860087018101810AC42E0030D4
:100C24007902403003197802031C192E1A2E292E3A
:100C3400003079025C30031978020318222E232E27
:100C4400292E770A860087018101810AC42E00308B
:100C540079025C3003197802031C312E322E472EA0
:100C64000030790271300319780203183A2E3B2EB2
:100C7400472E7708023E860087018101810A770AA0
:100C8400860087018101810AC42E00307902713007
:100C940003197802031C4F2E502E5F2E0030790268
:100CA4008130031978020318582E592E5F2E7708C5
:100CB400860087018101810AC42E003079028130C7
:100CC40003197802031C672E682E7D2E00307902EA
:100CD4008D30031978020318702E712E7D2E77083B
:100CE400023E860087018101810A77088600870118
:100CF4008101810AC42E003079028D3003197802F3
:100D0400031C852E862E9A2E003079029830031902
:100D1400780203188E2E8F2E9A2E770A860087016A
:100D24008101810A7708860087018101810AC42E26
:100D340000307902983003197802031CA22EA32EE6
:100D4400C42E00307902C930031978020318AB2E7F
:100D5400AC2EC42E7708023E860087018101810AE9
:100D6400770A860087018101810A77088600870156
:100D74008101810AC42EC42EC42EC42EC42EC42EB6
:100D8400C42EC42E08008431F3248631643020003C
:100D9400AB000030AC00C830AD000030AE00AF0195
:100DA400B001D030F8000730F9008531672586316D
:100DB40020002C08F3002B08F2002E08F5002D0863
:100DC400F4003008F7002F08F60085312625863117
:100DD40084316D2486312000A701A8013408B100B4
:100DE4003508B2003608B300F72E2000A901AA0185
:100DF4002A08803AA00080302002031D032F0A3005
:100E04002902031C062F072F092F9A2F9A2F00302F
:100E140085310C25863171082000A8007008A700D0
:100E240031308531BC25863120003108A000A10174
:100E34002008F0002108F1000530F2000030F30032
:100E440085314525863170082000AB077108AC3D1B
:100E54003208A000A1012008F0002108F1000530AB
:100E6400F2000030F30085314525863170082000FA
:100E7400AD077108AE3D3308A000A1012008F000C1
:100E84002108F1000530F2000030F30085314525DA
:100E9400863170082000AF077108B03D01302C0284
:100EA4002D3003192B02031C582F592F5C2FAB0133
:100EB400AC015C2F01302E022D3003192D02031CCE
:100EC400642F652F682FAD01AE01682F0130300209
:100ED4002D3003192F02031C702F712F742FAF01B3
:100EE400B001742F2C08F3002B08F2002E08F50033
:100EF4002D08F4003008F7002F08F6008531262568
:100F04008631FA300032890B842F01302000A90782
:100F14000030AA3D2A08803AA00080302002031D38
:100F2400952F0A302902031C982F992F092F9A2FE5
:100F34008431542486312000280884318224863167
:100F440020003308A0000230A035890BA62F3235CB
:100F540020043104843182248631B12FB12F8431AD
:100F640005248631003A0319B82FB92FB12FBA2FAF
:100F740084310A248631003A0319C12FC22FF42F79
:100F840084318E2486312000A0002008A600280881
:100F9400A1002708A0002108A000A101FF3020051E
:100FA400A20000302105A3002608A400A5012308FF
:100FB4002506031DDF2F22082406031DE22FE32F3D
:100FC400EA2F5530843182248631EA2FEA2FEA2F22
:100FD400843105248631003A0319F12FF22FEA2FC8
:100FE400F42FF42F84314D248631F72EF72E012867
:0C0FF4002000B401B501B6012000C52E9C
:020000040001F9
:04000E00E4FFFFFE0E
:00000001FF
