:020000040000FA
:040000000128FE2FA6
:100BD8003B009F1708003B009B1708003B009B1336
:100BE80008003B00AF1708003B00AB1708003B00AC
:100BF800AB1308003B00BF1708003B00BB170800F9
:100C08003B00BB13080016302100970008002300A2
:100C18001E0C01390F2E080071083B009400700863
:100C28009300080071083B009600700895000800C2
:100C380071083B00920070089100080071083B00A1
:100C4800A4007008A300080071083B00A600700803
:100C5800A500080071083B00A2007008A100080068
:100C680071083B00B4007008B300080071083B002D
:100C7800B6007008B500080071083B00B2007008A3
:100C8800B10008003830210099009801220096012F
:100C98000800013021009D009E019F019B019C01DD
:100CA8000800083023009F0090309D0024309E00EB
:100CB8000C309B009C010800F000622E2000111EE1
:100CC800662E672E622E682E700823009A00080090
:100CD80022008C01293021008C00013023008C0077
:100CE800013024008C002100951325008C018230EE
:100CF80022009D0008003B009C019D019E019F0170
:100D0800A00192019101940193019601013095008F
:100D18009801013097009A019901C0309B000800A2
:100D28003B00AC01AD01AE01AF01B001A201A101D0
:100D3800A401A301A6010130A500A8010130A70064
:100D4800AA01A901C030AB0008003B00BC01BD01ED
:100D5800BE01BF01C001B201B101B401B301B601C6
:100D68000130B500B8010130B700BA01B901C0308F
:100D7800BB00080086316C268631863146268631CE
:100D880086310726863186317F268631863194263C
:100D9800863186314D2686318631A92686318631BF
:100DA800552686310800F3007308F200F20DF20DA3
:100DB80021001D087206833972069D001D1421004A
:100DC8009D14E62E9D18E92EEA2EE62EEB2E1C0821
:100DD800F1001B08F000F02E08008631BE2686318F
:100DE80064302000A6000030A700C830A8000030FA
:100DF800A900AA01AB01D030A4000730A5008531B5
:100E0800F22586318531FB258631863104268631E7
:100E18000030F000F10086311C26863120002508BC
:100E2800F1002408F00086311626863120002708B4
:100E3800F1002608F0008631102686310030F000D7
:100E4800F10086312E26863120002508F10024087D
:100E5800F00086312826863120002908F10028086C
:100E6800F0008631222686310030F000F10086310C
:100E78004026863120002508F1002408F00086313C
:100E88003A26863120002B08F1002A08F000863126
:100E9800342686318531EF2586318531F82586312E
:100EA8008631012686312000A001A1015B2F200098
:100EB800A201A3012308803AF40080307402031DC4
:100EC800672F0A302202031C6A2F6B2F6D2FDF2F2A
:100ED800DF2F20000C1400308631D72686317108A8
:100EE8002000A1007008A0000C100530A6070030F3
:100EF800A73D0530A8070030A93D0530AA070030F6
:100F0800AB3D013027022D3003192602031C8D2F1B
:100F18008E2F912FA601A701912F013029022D3084
:100F280003192802031C992F9A2F9D2FA801A901A4
:100F38009D2F01302B022D3003192A02031CA52FE7
:100F4800A62FA92FAA01AB01A92F2708F10026086F
:100F5800F0008631102686318531EC258631200057
:100F68002908F1002808F0008631222686318531CB
:100F7800F525863120002B08F1002A08F00086317B
:100F8800342686318531FE258631FA300032890BC8
:100F9800CA2F01302000A2070030A33D2308803A61
:100FA800F40080307402031DDB2F0A302202031C78
:100FB800DE2FDF2F6D2F23009D172930890BE22F9D
:100FC8000032200020088631602686312000210862
:100FD800863160268631F12FF12F86310B26863136
:100FE800003A0319F82FF92FF12F23009D135B2FD7
:080FF8005B2F01282000F12EFF
:020000040001F9
:04000E00E4FFFFFF0D
:00000001FF
