:020000040000FA
:040000000128FE2FA6
:100B440000340034003400343B009F1708003B009D
:100B5400AF1708003B00BF1708003B009B130800B9
:100B64003B00AB1308003B00BB1308003B009B1782
:100B740008003B00AB1708003B00BB170800163009
:100B840021009700080023001E0C0139C92D08001C
:100B940071083B00960070089500080071083B003E
:100BA400920070089100080071083B00A6007008CC
:100BB400A500080071083B00A2007008A10008000D
:100BC40071083B00B6007008B500080071083B00CE
:100BD400B2007008B100080071083B00940070086E
:100BE4009300080071083B00A4007008A3000800EB
:100BF40071083B00B4007008B300080038302100CD
:100C0400990098012200960108002930890B082ECA
:100C1400003223009D13080023009D172930890BFF
:100C2400112E00320800013021009D009E019F0119
:100C34009B019C0108008531AF2586318531B225A1
:100C440086318531B525863108008531B825863150
:100C54008531BB2586318531BE25863108000830B3
:100C640023009F0090309D0024309E000C309B0098
:100C74009C010800F0003E2E2000111E422E432E3F
:100C84003E2E442E700823009A00080022008C0196
:100C9400293021008C00013023008C0024008C01B9
:100CA4002100951325008C01373026008C008230FA
:100CB40022009D0008003B009C019D019E019F01B4
:100CC400A0019201910194019301960101309500D4
:100CD4009801013097009A019901C0309B000800E7
:100CE4003B00AC01AD01AE01AF01B001A201A10115
:100CF400A401A301A6010130A500A8010130A700A9
:100D0400AA01A901C030AB0008003B00BC01BD0131
:100D1400BE01BF01C001B201B101B401B301B6010A
:100D24000130B500B8010130B700BA01B901C030D3
:100D3400BB0008008631482686318631002686317C
:100D44008531C125863186315D268631863172260C
:100D5400863186311526863186318726863186315D
:100D6400312686310800F3007308F200F20DF20D0B
:100D740021001D087206833972069D001D1421008E
:100D84009D14C42E9D18C72EC82EC42EC92E1C080F
:100D9400F1001B08F000CE2E08007308F100720861
:100DA400F0008531EE2586318531A625863175081A
:100DB400F1007408F0008531F42586318531A925C8
:100DC40086317708F1007608F0008531FA258631FE
:100DD4008531AC258631080086311D268631A43044
:100DE400840085308500003FF000013FF10085312B
:100DF400D02586317908F1007808F0008531CA25BC
:100E04008631A430840085308500003FF000013F26
:100E1400F1008531DC2586317908F1007808F0008D
:100E24008531D6258631A430840085308500003F85
:100E3400F000013FF1008531E82586317908F100A1
:100E44007808F0008531E2258631A23084008530AF
:100E54008500003FF200013FF300A230840085309A
:100E64008500003FF400013FF500A2308400853086
:100E74008500003FF600013FF7008631CF2686311A
:100E8400080086319C26873164302000A40000309D
:100E9400A500C830A6000030A700A801A901D030E1
:100EA400F8000730F9008631EE2687312000250846
:100EB400F3002408F2002708F5002608F4002908A6
:100EC400F7002808F6008631CF2687318631272699
:100ED40087312000A001A1016F2F2000A201A301EE
:100EE4002308803AFA0080307A02031D7B2F0A30EF
:100EF4002202031C7E2F7F2F812FE02FE02F003052
:100F04008631B526873171082000A1007008A00041
:100F14000530A4070030A53D0530A6070030A73DE5
:100F24000530A8070030A93D013025022D300319F2
:100F34002402031C9E2F9F2FA22FA401A501A22FE0
:100F4400013027022D3003192602031CAA2FAB2FD0
:100F5400AE2FA601A701AE2F013029022D300319AF
:100F64002802031CB62FB72FBA2FA801A901BA2F44
:100F74002508F3002408F2002708F5002608F400E9
:100F84002908F7002808F6008631CF268731FA3081
:100F94000032890BCA2F01302000A2070030A33D84
:100FA4002308803AFA0080307A02031DDB2F0A30CE
:100FB4002202031CDE2FDF2F812FE02F86310E2625
:100FC40087312000210886313C2687312000200803
:100FD40086313C268731EF2FEF2F8531C5258731A8
:100FE400003A0319F62FF72FEF2FF82F8631072633
:0C0FF40087316F2F6F2F01282000432F42
:020000040001F9
:04000E00E4FFFFFE0E
:00000001FF
