:020000040000FA
:020000001528C1
:100008007E1480318B1D09280A2813280B1C0D2803
:100018000E281328823102228031132813287E10DB
:1000280009001628823155228031AC0082315622CF
:100038008031AD00823157228031AE0082315822A2
:100048008031AF00A701A801A901AA01AB017E1068
:1000580020002E288131C22180318131F821803160
:100068008131F8218031D030F8000730F900803133
:10007800D020803120002F08F3002E08F2002D0830
:10008800F5002C08F4002B08F7002A08F600813147
:10009800462180318B170B178131E42180312000F4
:1000A800A301A4012708A0002808A1002908A2008C
:1000B8005D282000A501A6012608803AFA008030B4
:1000C8007A02031D69280A302502031C6C286D2852
:1000D8006F28CA28CA2805302000AE070030AF3D77
:1000E8000530AC070030AD3D0530AA070030AB3D08
:1000F80001302F022C3003192E02031C8428852876
:100108008828AE01AF01882801302D022C30031950
:100118002C02031C902891289428AC01AD01942846
:1001280001302B022C3003192A02031C9C289D281D
:10013800A028AA01AB01A0282F08F3002E08F2007E
:100148002D08F5002C08F4002B08F7002A08F60003
:100158008131462180311130FA003A30890BB228BA
:10016800FA0BB228003201302000A5070030A63D66
:100178002608803AFA0080307A02031DC5280A3022
:100188002502031CC828C9286F28CA28813165217F
:1001980080315D285D2815288131EE218031783045
:1001A800840082308500003FF000013FF100823179
:1001B800322280317908F1007808F0008231382243
:1001C80080317830840082308500003FF000013FA4
:1001D800F1008231262280317908F1007808F00098
:1001E80082312C2280317830840082308500003FB3
:1001F800F000013FF10082311A2280317908F100C4
:100208007808F0008231202280317A3084008230F0
:100218008500003FF200013FF3007A30840082300D
:100228008500003FF400013FF5007A3084008230F9
:100238008500003FF600013FF700813146218031FB
:10024800080022008C01293021008C000130230095
:100258008C0024008C012100951325008C01373077
:1002680026008C00823022009D00270013101210F7
:1002780011147C30F0000230F100823150228131BB
:100288008B1508007308F1007208F00082314A22C9
:1002980081318231752281317508F1007408F000CE
:1002A8008231442281318231722281317708F10012
:1002B8007608F00082313E22813182316F2281310D
:1002C800080082310C22813121001D1023000C10FE
:1002D80021000C140030F200F3000030F400F500A7
:1002E8000030F600F70081314621813163000000BB
:1002F80021000C1423000C1021001D1008003B00E5
:10030800BC01BD01BE01BF01C001B201B101B40110
:10031800B301B6010130B500B8010130B700BA0128
:10032800B901C030BB0008003B00AC01AD01AE0113
:10033800AF01B001A201A101A401A301A6010130EE
:10034800A500A8010130A700AA01A901C030AB008F
:1003580008003B009C019D019E019F01A0019201A4
:1003680091019401930196010130950098010130A3
:1003780097009A019901C0309B000800813125211E
:100388008131823113228131823159228131813187
:10039800AD218131813198218131813183218131B0
:1003A80008007B087C040319DA29DB29E1297C0889
:1003B8008A007B080A008131E12927001310080010
:1003C80082316322813182316022813182315D2222
:1003D8008131080082316C22813182316922813178
:1003E80082316622813108007D30F0000230F10050
:1003F8008231502281318B170B1708002700131CFC
:10040800062A072A0B2A8131D52182310B2A0800B6
:100418002930890B0D2A003223009D13080038303B
:1004280021009900980122009601080071083B00FC
:10043800B2007008B100080071083B00B6007008EF
:10044800B500080071083B00A2007008A100080070
:1004580071083B00A6007008A500080071083B0061
:10046800920070089100080071083B00960070081F
:100478009500080071083B00B4007008B30008003C
:1004880071083B00A4007008A300080071083B0035
:1004980094007008930008007108FC007008FB00C5
:1004A8000800C83400346434003416302100970042
:1004B80008003B00BB1708003B00AB1708003B00D7
:1004C8009B1708003B00BB1308003B00AB13080058
:1004D8003B009B1308003B00BF1708003B00AF1709
:1004E80008003B009F170800003400340034003433
:0404F80008000800F0
:020000040001F9
:04000E00A4FFFFDE6E
:00000001FF
