:020000040000FA
:040000000128FE2FA6
:100C42003B009F1708003B009B1708003B009B13CB
:100C520008003B00AF1708003B00AB1708003B0041
:100C6200AB1308003B00BF1708003B00BB1708008E
:100C72003B00BB13080023001E0C0139080016308C
:100C820021009700080071083B009400700893004F
:100C9200080071083B009600700895000800710872
:100CA2003B00920070089100080071083B00A4000C
:100CB2007008A300080071083B00A6007008A50098
:100CC200080071083B00A2007008A100080071082A
:100CD2003B00B4007008B300080071083B00B60086
:100CE2007008B500080071083B00B2007008B1003E
:100CF200080038302100990098012200960108006E
:100D0200F0002000111E822E700823009A000800B5
:100D1200013021009D009E019F019B019C01080062
:100D2200AF267A264026D626EB2689260027A42639
:100D320008002000911E9A2E23009D1CA22E1D1237
:100D42001D1619080800083023009F0090309D00EE
:100D520024309E000C309B009C01080022008C0174
:100D6200293021008C00053023008C0024008C01E6
:100D72002100951725008C01823022009D00080079
:100D8200F3007308F200F20DF20D21001D08720645
:100D9200833972069D001D1421009D149D18CF2ECB
:100DA2001C08F1001B08F00008003B009C019D019B
:100DB2009E019F01A001920191019401930196016C
:100DC200FF3095009801013097009A019901C030D7
:100DD2009B0008003B00AC01AD01AE01AF01B001C8
:100DE200A201A101A401A301A601FF30A500A8014F
:100DF2000130A700AA01A901C030AB0008003B00E6
:100E0200BC01BD01BE01BF01C001B201B101B4010B
:100E1200B301B601FF30B500B8010130B700BA0125
:100E2200B901C030BB000800912664302000A30045
:100E32000030A400C830A5000030A600A701A80118
:100E4200D030A1000730A2002726302639260030F4
:100E5200F000F100502620002208F1002108F000E5
:100E62004A2620002408F1002308F000442600301E
:100E7200F000F100622620002208F1002108F000B3
:100E82005C2620002608F1002508F00056260030D6
:100E9200F000F100742620002208F1002108F00081
:100EA2006E2620002808F1002708F0006826242674
:100EB2002D2636262000A901AA010030C12671087C
:100EC2002000AA007008A90023009D172930890B71
:100ED200682F003220002908812620002A08812656
:100EE2003C26003A0319712F9A26F4007408200058
:100EF200A000FF302905F40000302A05F500200883
:100F0200F600F70175087706031D892F7408760627
:100F1200031D8D2F553081263C26003A03198D2F53
:100F220023009D13993020002A02B63003192902AA
:100F3200031CA62F99302A02CB3003192902031869
:100F4200A62F0530A3070030A43D8D302A02B6300B
:100F520003192902031CB82F8D302A02CB30031942
:100F620029020318B82F0530A5070030A63D7A30B4
:100F72002A02363003192902031CCA2F7A302A02A8
:100F82004B30031929020318CA2F0530A707003076
:100F9200A83D013024022D3003192302031CD32F54
:100FA200A301A401013026022D3003192502031CDE
:100FB200DC2FA501A601013028022D3003192702DA
:100FC200031CE52FA701A8012408F1002308F00063
:100FD2004426212620002608F1002508F000562686
:100FE2002A2620002808F1002708F0006826332668
:0E0FF200FA300032890BFA2F5B2F2000152FEA
:020000040001F9
:04000E00E4FFFFFF0D
:00000001FF
